{
  "contractName": "Voting",
  "abi": [
    {
      "anonymous": false,
      "inputs": [
        {
          "indexed": false,
          "internalType": "address",
          "name": "voter",
          "type": "address"
        },
        {
          "indexed": false,
          "internalType": "uint256",
          "name": "candidateIndex",
          "type": "uint256"
        }
      ],
      "name": "Voted",
      "type": "event"
    },
    {
      "inputs": [],
      "name": "election",
      "outputs": [
        {
          "internalType": "string",
          "name": "title",
          "type": "string"
        },
        {
          "internalType": "bool",
          "name": "isActive",
          "type": "bool"
        }
      ],
      "stateMutability": "view",
      "type": "function",
      "constant": true
    },
    {
      "inputs": [],
      "name": "electionId",
      "outputs": [
        {
          "internalType": "uint256",
          "name": "",
          "type": "uint256"
        }
      ],
      "stateMutability": "view",
      "type": "function",
      "constant": true
    },
    {
      "inputs": [
        {
          "internalType": "uint256",
          "name": "",
          "type": "uint256"
        },
        {
          "internalType": "address",
          "name": "",
          "type": "address"
        }
      ],
      "name": "voters",
      "outputs": [
        {
          "internalType": "bool",
          "name": "",
          "type": "bool"
        }
      ],
      "stateMutability": "view",
      "type": "function",
      "constant": true
    },
    {
      "inputs": [
        {
          "internalType": "string",
          "name": "_title",
          "type": "string"
        },
        {
          "internalType": "string[]",
          "name": "_candidateNames",
          "type": "string[]"
        }
      ],
      "name": "createElection",
      "outputs": [],
      "stateMutability": "nonpayable",
      "type": "function"
    },
    {
      "inputs": [
        {
          "internalType": "uint256",
          "name": "candidateIndex",
          "type": "uint256"
        }
      ],
      "name": "vote",
      "outputs": [],
      "stateMutability": "nonpayable",
      "type": "function"
    },
    {
      "inputs": [],
      "name": "closeElection",
      "outputs": [],
      "stateMutability": "nonpayable",
      "type": "function"
    },
    {
      "inputs": [],
      "name": "getResults",
      "outputs": [
        {
          "components": [
            {
              "internalType": "string",
              "name": "name",
              "type": "string"
            },
            {
              "internalType": "uint256",
              "name": "voteCount",
              "type": "uint256"
            }
          ],
          "internalType": "struct Voting.Candidate[]",
          "name": "",
          "type": "tuple[]"
        }
      ],
      "stateMutability": "view",
      "type": "function",
      "constant": true
    },
    {
      "inputs": [
        {
          "internalType": "uint256",
          "name": "index",
          "type": "uint256"
        }
      ],
      "name": "getCandidate",
      "outputs": [
        {
          "internalType": "string",
          "name": "name",
          "type": "string"
        },
        {
          "internalType": "uint256",
          "name": "voteCount",
          "type": "uint256"
        }
      ],
      "stateMutability": "view",
      "type": "function",
      "constant": true
    },
    {
      "inputs": [],
      "name": "getCandidateCount",
      "outputs": [
        {
          "internalType": "uint256",
          "name": "",
          "type": "uint256"
        }
      ],
      "stateMutability": "view",
      "type": "function",
      "constant": true
    }
  ],
  "bytecode": "0x608060405234801561000f575f80fd5b506115f58061001d5f395ff3fe608060405234801561000f575f80fd5b5060043610610091575f3560e01c806335b8e8201161006457806335b8e820146101095780634717f97c1461013a5780634b1d3ede146101585780636c6c32d0146101775780639e3190631461018157610091565b80630121b93f14610095578063051364d4146100b157806330a56347146100cf578063349813b2146100ed575b5f80fd5b6100af60048036038101906100aa9190610962565b6101b1565b005b6100b96103c3565b6040516100c6919061099c565b60405180910390f35b6100d76103c9565b6040516100e4919061099c565b60405180910390f35b61010760048036038101906101029190610bd3565b6103d7565b005b610123600480360381019061011e9190610962565b6104eb565b604051610131929190610cc3565b60405180910390f35b6101426105f8565b60405161014f9190610e3d565b60405180910390f35b610160610740565b60405161016e929190610e77565b60405180910390f35b61017f6107e2565b005b61019b60048036038101906101969190610eff565b61084f565b6040516101a89190610f3d565b60405180910390f35b5f6002015f9054906101000a900460ff16610201576040517f08c379a00000000000000000000000000000000000000000000000000000000081526004016101f890610fa0565b60405180910390fd5b60045f60035481526020019081526020015f205f3373ffffffffffffffffffffffffffffffffffffffff1673ffffffffffffffffffffffffffffffffffffffff1681526020019081526020015f205f9054906101000a900460ff161561029c576040517f08c379a00000000000000000000000000000000000000000000000000000000081526004016102939061102e565b60405180910390fd5b5f6001018054905081106102e5576040517f08c379a00000000000000000000000000000000000000000000000000000000081526004016102dc90611096565b60405180910390fd5b60015f60010182815481106102fd576102fc6110b4565b5b905f5260205f2090600202016001015f82825461031a919061110e565b92505081905550600160045f60035481526020019081526020015f205f3373ffffffffffffffffffffffffffffffffffffffff1673ffffffffffffffffffffffffffffffffffffffff1681526020019081526020015f205f6101000a81548160ff0219169083151502179055507f4d99b957a2bc29a30ebd96a7be8e68fe50a3c701db28a91436490b7d53870ca433826040516103b8929190611150565b60405180910390a150565b60035481565b5f8060010180549050905090565b5f805f82015f6103e79190610879565b600182015f6103f691906108b6565b600282015f6101000a81549060ff0219169055505060035f81548092919061041d90611177565b9190505550815f8001908161043291906113b8565b5060015f6002015f6101000a81548160ff0219169083151502179055505f5b81518110156104e6575f600101604051806040016040528084848151811061047c5761047b6110b4565b5b602002602001015181526020015f815250908060018154018082558091505060019003905f5260205f2090600202015f909190919091505f820151815f0190816104c691906113b8565b5060208201518160010155505080806104de90611177565b915050610451565b505050565b60605f80600101805490508310610537576040517f08c379a000000000000000000000000000000000000000000000000000000000815260040161052e906114d1565b60405180910390fd5b5f80600101848154811061054e5761054d6110b4565b5b905f5260205f2090600202019050805f018160010154818054610570906111eb565b80601f016020809104026020016040519081016040528092919081815260200182805461059c906111eb565b80156105e75780601f106105be576101008083540402835291602001916105e7565b820191905f5260205f20905b8154815290600101906020018083116105ca57829003601f168201915b505050505091509250925050915091565b60605f6002015f9054906101000a900460ff161561064b576040517f08c379a000000000000000000000000000000000000000000000000000000000815260040161064290611539565b60405180910390fd5b5f600101805480602002602001604051908101604052809291908181526020015f905b82821015610737578382905f5260205f2090600202016040518060400160405290815f8201805461069e906111eb565b80601f01602080910402602001604051908101604052809291908181526020018280546106ca906111eb565b80156107155780601f106106ec57610100808354040283529160200191610715565b820191905f5260205f20905b8154815290600101906020018083116106f857829003601f168201915b505050505081526020016001820154815250508152602001906001019061066e565b50505050905090565b5f805f01805461074f906111eb565b80601f016020809104026020016040519081016040528092919081815260200182805461077b906111eb565b80156107c65780601f1061079d576101008083540402835291602001916107c6565b820191905f5260205f20905b8154815290600101906020018083116107a957829003601f168201915b505050505090806002015f9054906101000a900460ff16905082565b5f6002015f9054906101000a900460ff16610832576040517f08c379a0000000000000000000000000000000000000000000000000000000008152600401610829906115a1565b60405180910390fd5b5f806002015f6101000a81548160ff021916908315150217905550565b6004602052815f5260405f20602052805f5260405f205f915091509054906101000a900460ff1681565b508054610885906111eb565b5f825580601f1061089657506108b3565b601f0160209004905f5260205f20908101906108b291906108d7565b5b50565b5080545f8255600202905f5260205f20908101906108d491906108f2565b50565b5b808211156108ee575f815f9055506001016108d8565b5090565b5b8082111561091a575f8082015f61090a9190610879565b600182015f9055506002016108f3565b5090565b5f604051905090565b5f80fd5b5f80fd5b5f819050919050565b6109418161092f565b811461094b575f80fd5b50565b5f8135905061095c81610938565b92915050565b5f6020828403121561097757610976610927565b5b5f6109848482850161094e565b91505092915050565b6109968161092f565b82525050565b5f6020820190506109af5f83018461098d565b92915050565b5f80fd5b5f80fd5b5f601f19601f8301169050919050565b7f4e487b71000000000000000000000000000000000000000000000000000000005f52604160045260245ffd5b610a03826109bd565b810181811067ffffffffffffffff82111715610a2257610a216109cd565b5b80604052505050565b5f610a3461091e565b9050610a4082826109fa565b919050565b5f67ffffffffffffffff821115610a5f57610a5e6109cd565b5b610a68826109bd565b9050602081019050919050565b828183375f83830152505050565b5f610a95610a9084610a45565b610a2b565b905082815260208101848484011115610ab157610ab06109b9565b5b610abc848285610a75565b509392505050565b5f82601f830112610ad857610ad76109b5565b5b8135610ae8848260208601610a83565b91505092915050565b5f67ffffffffffffffff821115610b0b57610b0a6109cd565b5b602082029050602081019050919050565b5f80fd5b5f610b32610b2d84610af1565b610a2b565b90508083825260208201905060208402830185811115610b5557610b54610b1c565b5b835b81811015610b9c57803567ffffffffffffffff811115610b7a57610b796109b5565b5b808601610b878982610ac4565b85526020850194505050602081019050610b57565b5050509392505050565b5f82601f830112610bba57610bb96109b5565b5b8135610bca848260208601610b20565b91505092915050565b5f8060408385031215610be957610be8610927565b5b5f83013567ffffffffffffffff811115610c0657610c0561092b565b5b610c1285828601610ac4565b925050602083013567ffffffffffffffff811115610c3357610c3261092b565b5b610c3f85828601610ba6565b9150509250929050565b5f81519050919050565b5f82825260208201905092915050565b5f5b83811015610c80578082015181840152602081019050610c65565b5f8484015250505050565b5f610c9582610c49565b610c9f8185610c53565b9350610caf818560208601610c63565b610cb8816109bd565b840191505092915050565b5f6040820190508181035f830152610cdb8185610c8b565b9050610cea602083018461098d565b9392505050565b5f81519050919050565b5f82825260208201905092915050565b5f819050602082019050919050565b5f82825260208201905092915050565b5f610d3482610c49565b610d3e8185610d1a565b9350610d4e818560208601610c63565b610d57816109bd565b840191505092915050565b610d6b8161092f565b82525050565b5f604083015f8301518482035f860152610d8b8282610d2a565b9150506020830151610da06020860182610d62565b508091505092915050565b5f610db68383610d71565b905092915050565b5f602082019050919050565b5f610dd482610cf1565b610dde8185610cfb565b935083602082028501610df085610d0b565b805f5b85811015610e2b5784840389528151610e0c8582610dab565b9450610e1783610dbe565b925060208a01995050600181019050610df3565b50829750879550505050505092915050565b5f6020820190508181035f830152610e558184610dca565b905092915050565b5f8115159050919050565b610e7181610e5d565b82525050565b5f6040820190508181035f830152610e8f8185610c8b565b9050610e9e6020830184610e68565b9392505050565b5f73ffffffffffffffffffffffffffffffffffffffff82169050919050565b5f610ece82610ea5565b9050919050565b610ede81610ec4565b8114610ee8575f80fd5b50565b5f81359050610ef981610ed5565b92915050565b5f8060408385031215610f1557610f14610927565b5b5f610f228582860161094e565b9250506020610f3385828601610eeb565b9150509250929050565b5f602082019050610f505f830184610e68565b92915050565b7f456c656374696f6e206973206e6f7420616374697665000000000000000000005f82015250565b5f610f8a601683610c53565b9150610f9582610f56565b602082019050919050565b5f6020820190508181035f830152610fb781610f7e565b9050919050565b7f596f75206861766520616c726561647920766f74656420696e207468697320655f8201527f6c656374696f6e00000000000000000000000000000000000000000000000000602082015250565b5f611018602783610c53565b915061102382610fbe565b604082019050919050565b5f6020820190508181035f8301526110458161100c565b9050919050565b7f496e76616c69642063616e6469646174650000000000000000000000000000005f82015250565b5f611080601183610c53565b915061108b8261104c565b602082019050919050565b5f6020820190508181035f8301526110ad81611074565b9050919050565b7f4e487b71000000000000000000000000000000000000000000000000000000005f52603260045260245ffd5b7f4e487b71000000000000000000000000000000000000000000000000000000005f52601160045260245ffd5b5f6111188261092f565b91506111238361092f565b925082820190508082111561113b5761113a6110e1565b5b92915050565b61114a81610ec4565b82525050565b5f6040820190506111635f830185611141565b611170602083018461098d565b9392505050565b5f6111818261092f565b91507fffffffffffffffffffffffffffffffffffffffffffffffffffffffffffffffff82036111b3576111b26110e1565b5b600182019050919050565b7f4e487b71000000000000000000000000000000000000000000000000000000005f52602260045260245ffd5b5f600282049050600182168061120257607f821691505b602082108103611215576112146111be565b5b50919050565b5f819050815f5260205f209050919050565b5f6020601f8301049050919050565b5f82821b905092915050565b5f600883026112777fffffffffffffffffffffffffffffffffffffffffffffffffffffffffffffffff8261123c565b611281868361123c565b95508019841693508086168417925050509392505050565b5f819050919050565b5f6112bc6112b76112b28461092f565b611299565b61092f565b9050919050565b5f819050919050565b6112d5836112a2565b6112e96112e1826112c3565b848454611248565b825550505050565b5f90565b6112fd6112f1565b6113088184846112cc565b505050565b5b8181101561132b576113205f826112f5565b60018101905061130e565b5050565b601f821115611370576113418161121b565b61134a8461122d565b81016020851015611359578190505b61136d6113658561122d565b83018261130d565b50505b505050565b5f82821c905092915050565b5f6113905f1984600802611375565b1980831691505092915050565b5f6113a88383611381565b9150826002028217905092915050565b6113c182610c49565b67ffffffffffffffff8111156113da576113d96109cd565b5b6113e482546111eb565b6113ef82828561132f565b5f60209050601f831160018114611420575f841561140e578287015190505b611418858261139d565b86555061147f565b601f19841661142e8661121b565b5f5b8281101561145557848901518255600182019150602085019450602081019050611430565b86831015611472578489015161146e601f891682611381565b8355505b6001600288020188555050505b505050505050565b7f43616e64696461746520646f6573206e6f7420657869737400000000000000005f82015250565b5f6114bb601883610c53565b91506114c682611487565b602082019050919050565b5f6020820190508181035f8301526114e8816114af565b9050919050565b7f456c656374696f6e206973207374696c6c2061637469766500000000000000005f82015250565b5f611523601883610c53565b915061152e826114ef565b602082019050919050565b5f6020820190508181035f83015261155081611517565b9050919050565b7f456c656374696f6e20697320616c726561647920636c6f7365640000000000005f82015250565b5f61158b601a83610c53565b915061159682611557565b602082019050919050565b5f6020820190508181035f8301526115b88161157f565b905091905056fea264697066735822122094beb2c695de0e9c57571f1ed1e96347db36c6577e2722931c37e20c4188f7c464736f6c63430008150033",
  "immutableReferences": {},
  "source": "// SPDX-License-Identifier: MIT\npragma solidity ^0.8.0;\n\ncontract Voting {\n    struct Candidate {\n        string name;\n        uint voteCount;\n    }\n\n    struct Election {\n        string title;\n        Candidate[] candidates;\n        bool isActive;\n    }\n\n    Election public election;\n    uint public electionId; // Identifiant unique pour chaque lection\n    mapping(uint => mapping(address => bool)) public voters; // Associe electionId aux votants\n\n    // Crer une nouvelle lection\n    function createElection(\n        string memory _title,\n        string[] memory _candidateNames\n    ) public {\n        // Supprime compltement l'ancienne lection\n        delete election;\n\n        // Augmente l'identifiant de l'lection\n        electionId++;\n\n        // Configure les nouvelles donnes de l'lection\n        election.title = _title;\n        election.isActive = true;\n\n        for (uint i = 0; i < _candidateNames.length; i++) {\n            election.candidates.push(\n                Candidate({name: _candidateNames[i], voteCount: 0})\n            );\n        }\n    }\n\n    // Voter pour un candidat\n    function vote(uint candidateIndex) public {\n        require(election.isActive, \"Election is not active\");\n        require(\n            !voters[electionId][msg.sender],\n            \"You have already voted in this election\"\n        );\n        require(\n            candidateIndex < election.candidates.length,\n            \"Invalid candidate\"\n        );\n\n        // Logique de vote\n        election.candidates[candidateIndex].voteCount += 1;\n        voters[electionId][msg.sender] = true;\n\n        emit Voted(msg.sender, candidateIndex);\n    }\n\n    event Voted(address voter, uint candidateIndex);\n\n    // Clturer l'lection\n    function closeElection() public {\n        require(election.isActive, \"Election is already closed\");\n        election.isActive = false;\n    }\n\n    // Rcuprer les rsultats\n    function getResults() public view returns (Candidate[] memory) {\n        require(!election.isActive, \"Election is still active\");\n        return election.candidates;\n    }\n\n    // Rcuprer les dtails d'un candidat par index\n    function getCandidate(\n        uint index\n    ) public view returns (string memory name, uint voteCount) {\n        require(index < election.candidates.length, \"Candidate does not exist\");\n        Candidate storage candidate = election.candidates[index];\n        return (candidate.name, candidate.voteCount);\n    }\n\n    // Obtenir le nombre total de candidats\n    function getCandidateCount() public view returns (uint) {\n        return election.candidates.length;\n    }\n}\n",
  "sourcePath": "/Users/anatolemartin/Desktop/ECE/ING5/BlockChain/VoteDecentralise/contracts/Voting.sol",
  "compiler": {
    "name": "solc",
    "version": "0.8.21+commit.d9974bed.Emscripten.clang"
  },
  "schemaVersion": "3.4.16",
  "updatedAt": "2024-11-26T18:40:13.043Z",
  "networkType": "ethereum",
  "devdoc": {
    "kind": "dev",
    "methods": {},
    "version": 1
  },
  "userdoc": {
    "kind": "user",
    "methods": {},
    "version": 1
  }
}