{
  "contractName": "Voting",
  "abi": [
    {
      "inputs": [],
      "name": "election",
      "outputs": [
        {
          "internalType": "string",
          "name": "title",
          "type": "string"
        },
        {
          "internalType": "bool",
          "name": "isActive",
          "type": "bool"
        }
      ],
      "stateMutability": "view",
      "type": "function"
    },
    {
      "inputs": [
        {
          "internalType": "string",
          "name": "_title",
          "type": "string"
        },
        {
          "internalType": "string[]",
          "name": "_candidateNames",
          "type": "string[]"
        }
      ],
      "name": "createElection",
      "outputs": [],
      "stateMutability": "nonpayable",
      "type": "function"
    },
    {
      "inputs": [
        {
          "internalType": "uint256",
          "name": "candidateIndex",
          "type": "uint256"
        }
      ],
      "name": "vote",
      "outputs": [],
      "stateMutability": "nonpayable",
      "type": "function"
    },
    {
      "inputs": [],
      "name": "closeElection",
      "outputs": [],
      "stateMutability": "nonpayable",
      "type": "function"
    },
    {
      "inputs": [],
      "name": "getResults",
      "outputs": [
        {
          "components": [
            {
              "internalType": "string",
              "name": "name",
              "type": "string"
            },
            {
              "internalType": "uint256",
              "name": "voteCount",
              "type": "uint256"
            }
          ],
          "internalType": "struct Voting.Candidate[]",
          "name": "",
          "type": "tuple[]"
        }
      ],
      "stateMutability": "view",
      "type": "function"
    },
    {
      "inputs": [
        {
          "internalType": "uint256",
          "name": "index",
          "type": "uint256"
        }
      ],
      "name": "getCandidate",
      "outputs": [
        {
          "internalType": "string",
          "name": "name",
          "type": "string"
        },
        {
          "internalType": "uint256",
          "name": "voteCount",
          "type": "uint256"
        }
      ],
      "stateMutability": "view",
      "type": "function"
    },
    {
      "inputs": [],
      "name": "getCandidateCount",
      "outputs": [
        {
          "internalType": "uint256",
          "name": "",
          "type": "uint256"
        }
      ],
      "stateMutability": "view",
      "type": "function"
    }
  ],
  "bytecode": "0x608060405234801561000f575f80fd5b506113c18061001d5f395ff3fe608060405234801561000f575f80fd5b506004361061007b575f3560e01c806335b8e8201161005957806335b8e820146100d55780634717f97c146101065780634b1d3ede146101245780636c6c32d0146101435761007b565b80630121b93f1461007f57806330a563471461009b578063349813b2146100b9575b5f80fd5b6100996004803603810190610094919061083b565b61014d565b005b6100a3610308565b6040516100b09190610875565b60405180910390f35b6100d360048036038101906100ce9190610aac565b610316565b005b6100ef60048036038101906100ea919061083b565b6103ee565b6040516100fd929190610b9c565b60405180910390f35b61010e6104fb565b60405161011b9190610d16565b60405180910390f35b61012c610643565b60405161013a929190610d50565b60405180910390f35b61014b6106e5565b005b5f6003015f9054906101000a900460ff1661019d576040517f08c379a000000000000000000000000000000000000000000000000000000000815260040161019490610dc8565b60405180910390fd5b5f6002015f3373ffffffffffffffffffffffffffffffffffffffff1673ffffffffffffffffffffffffffffffffffffffff1681526020019081526020015f205f9054906101000a900460ff1615610229576040517f08c379a000000000000000000000000000000000000000000000000000000000815260040161022090610e30565b60405180910390fd5b5f600101805490508110610272576040517f08c379a000000000000000000000000000000000000000000000000000000000815260040161026990610e98565b60405180910390fd5b60015f600101828154811061028a57610289610eb6565b5b905f5260205f2090600202016001015f8282546102a79190610f10565b9250508190555060015f6002015f3373ffffffffffffffffffffffffffffffffffffffff1673ffffffffffffffffffffffffffffffffffffffff1681526020019081526020015f205f6101000a81548160ff02191690831515021790555050565b5f8060010180549050905090565b815f80019081610326919061113d565b505f6001015f6103369190610752565b5f5b81518110156103cd575f600101604051806040016040528084848151811061036357610362610eb6565b5b602002602001015181526020015f815250908060018154018082558091505060019003905f5260205f2090600202015f909190919091505f820151815f0190816103ad919061113d565b5060208201518160010155505080806103c59061120c565b915050610338565b5060015f6003015f6101000a81548160ff0219169083151502179055505050565b60605f8060010180549050831061043a576040517f08c379a00000000000000000000000000000000000000000000000000000000081526004016104319061129d565b60405180910390fd5b5f80600101848154811061045157610450610eb6565b5b905f5260205f2090600202019050805f01816001015481805461047390610f70565b80601f016020809104026020016040519081016040528092919081815260200182805461049f90610f70565b80156104ea5780601f106104c1576101008083540402835291602001916104ea565b820191905f5260205f20905b8154815290600101906020018083116104cd57829003601f168201915b505050505091509250925050915091565b60605f6003015f9054906101000a900460ff161561054e576040517f08c379a000000000000000000000000000000000000000000000000000000000815260040161054590611305565b60405180910390fd5b5f600101805480602002602001604051908101604052809291908181526020015f905b8282101561063a578382905f5260205f2090600202016040518060400160405290815f820180546105a190610f70565b80601f01602080910402602001604051908101604052809291908181526020018280546105cd90610f70565b80156106185780601f106105ef57610100808354040283529160200191610618565b820191905f5260205f20905b8154815290600101906020018083116105fb57829003601f168201915b5050505050815260200160018201548152505081526020019060010190610571565b50505050905090565b5f805f01805461065290610f70565b80601f016020809104026020016040519081016040528092919081815260200182805461067e90610f70565b80156106c95780601f106106a0576101008083540402835291602001916106c9565b820191905f5260205f20905b8154815290600101906020018083116106ac57829003601f168201915b505050505090806003015f9054906101000a900460ff16905082565b5f6003015f9054906101000a900460ff16610735576040517f08c379a000000000000000000000000000000000000000000000000000000000815260040161072c9061136d565b60405180910390fd5b5f806003015f6101000a81548160ff021916908315150217905550565b5080545f8255600202905f5260205f20908101906107709190610773565b50565b5b8082111561079b575f8082015f61078b919061079f565b600182015f905550600201610774565b5090565b5080546107ab90610f70565b5f825580601f106107bc57506107d9565b601f0160209004905f5260205f20908101906107d891906107dc565b5b50565b5b808211156107f3575f815f9055506001016107dd565b5090565b5f604051905090565b5f80fd5b5f80fd5b5f819050919050565b61081a81610808565b8114610824575f80fd5b50565b5f8135905061083581610811565b92915050565b5f602082840312156108505761084f610800565b5b5f61085d84828501610827565b91505092915050565b61086f81610808565b82525050565b5f6020820190506108885f830184610866565b92915050565b5f80fd5b5f80fd5b5f601f19601f8301169050919050565b7f4e487b71000000000000000000000000000000000000000000000000000000005f52604160045260245ffd5b6108dc82610896565b810181811067ffffffffffffffff821117156108fb576108fa6108a6565b5b80604052505050565b5f61090d6107f7565b905061091982826108d3565b919050565b5f67ffffffffffffffff821115610938576109376108a6565b5b61094182610896565b9050602081019050919050565b828183375f83830152505050565b5f61096e6109698461091e565b610904565b90508281526020810184848401111561098a57610989610892565b5b61099584828561094e565b509392505050565b5f82601f8301126109b1576109b061088e565b5b81356109c184826020860161095c565b91505092915050565b5f67ffffffffffffffff8211156109e4576109e36108a6565b5b602082029050602081019050919050565b5f80fd5b5f610a0b610a06846109ca565b610904565b90508083825260208201905060208402830185811115610a2e57610a2d6109f5565b5b835b81811015610a7557803567ffffffffffffffff811115610a5357610a5261088e565b5b808601610a60898261099d565b85526020850194505050602081019050610a30565b5050509392505050565b5f82601f830112610a9357610a9261088e565b5b8135610aa38482602086016109f9565b91505092915050565b5f8060408385031215610ac257610ac1610800565b5b5f83013567ffffffffffffffff811115610adf57610ade610804565b5b610aeb8582860161099d565b925050602083013567ffffffffffffffff811115610b0c57610b0b610804565b5b610b1885828601610a7f565b9150509250929050565b5f81519050919050565b5f82825260208201905092915050565b5f5b83811015610b59578082015181840152602081019050610b3e565b5f8484015250505050565b5f610b6e82610b22565b610b788185610b2c565b9350610b88818560208601610b3c565b610b9181610896565b840191505092915050565b5f6040820190508181035f830152610bb48185610b64565b9050610bc36020830184610866565b9392505050565b5f81519050919050565b5f82825260208201905092915050565b5f819050602082019050919050565b5f82825260208201905092915050565b5f610c0d82610b22565b610c178185610bf3565b9350610c27818560208601610b3c565b610c3081610896565b840191505092915050565b610c4481610808565b82525050565b5f604083015f8301518482035f860152610c648282610c03565b9150506020830151610c796020860182610c3b565b508091505092915050565b5f610c8f8383610c4a565b905092915050565b5f602082019050919050565b5f610cad82610bca565b610cb78185610bd4565b935083602082028501610cc985610be4565b805f5b85811015610d045784840389528151610ce58582610c84565b9450610cf083610c97565b925060208a01995050600181019050610ccc565b50829750879550505050505092915050565b5f6020820190508181035f830152610d2e8184610ca3565b905092915050565b5f8115159050919050565b610d4a81610d36565b82525050565b5f6040820190508181035f830152610d688185610b64565b9050610d776020830184610d41565b9392505050565b7f456c656374696f6e206973206e6f7420616374697665000000000000000000005f82015250565b5f610db2601683610b2c565b9150610dbd82610d7e565b602082019050919050565b5f6020820190508181035f830152610ddf81610da6565b9050919050565b7f596f75206861766520616c726561647920766f746564000000000000000000005f82015250565b5f610e1a601683610b2c565b9150610e2582610de6565b602082019050919050565b5f6020820190508181035f830152610e4781610e0e565b9050919050565b7f496e76616c69642063616e6469646174650000000000000000000000000000005f82015250565b5f610e82601183610b2c565b9150610e8d82610e4e565b602082019050919050565b5f6020820190508181035f830152610eaf81610e76565b9050919050565b7f4e487b71000000000000000000000000000000000000000000000000000000005f52603260045260245ffd5b7f4e487b71000000000000000000000000000000000000000000000000000000005f52601160045260245ffd5b5f610f1a82610808565b9150610f2583610808565b9250828201905080821115610f3d57610f3c610ee3565b5b92915050565b7f4e487b71000000000000000000000000000000000000000000000000000000005f52602260045260245ffd5b5f6002820490506001821680610f8757607f821691505b602082108103610f9a57610f99610f43565b5b50919050565b5f819050815f5260205f209050919050565b5f6020601f8301049050919050565b5f82821b905092915050565b5f60088302610ffc7fffffffffffffffffffffffffffffffffffffffffffffffffffffffffffffffff82610fc1565b6110068683610fc1565b95508019841693508086168417925050509392505050565b5f819050919050565b5f61104161103c61103784610808565b61101e565b610808565b9050919050565b5f819050919050565b61105a83611027565b61106e61106682611048565b848454610fcd565b825550505050565b5f90565b611082611076565b61108d818484611051565b505050565b5b818110156110b0576110a55f8261107a565b600181019050611093565b5050565b601f8211156110f5576110c681610fa0565b6110cf84610fb2565b810160208510156110de578190505b6110f26110ea85610fb2565b830182611092565b50505b505050565b5f82821c905092915050565b5f6111155f19846008026110fa565b1980831691505092915050565b5f61112d8383611106565b9150826002028217905092915050565b61114682610b22565b67ffffffffffffffff81111561115f5761115e6108a6565b5b6111698254610f70565b6111748282856110b4565b5f60209050601f8311600181146111a5575f8415611193578287015190505b61119d8582611122565b865550611204565b601f1984166111b386610fa0565b5f5b828110156111da578489015182556001820191506020850194506020810190506111b5565b868310156111f757848901516111f3601f891682611106565b8355505b6001600288020188555050505b505050505050565b5f61121682610808565b91507fffffffffffffffffffffffffffffffffffffffffffffffffffffffffffffffff820361124857611247610ee3565b5b600182019050919050565b7f43616e64696461746520646f6573206e6f7420657869737400000000000000005f82015250565b5f611287601883610b2c565b915061129282611253565b602082019050919050565b5f6020820190508181035f8301526112b48161127b565b9050919050565b7f456c656374696f6e206973207374696c6c2061637469766500000000000000005f82015250565b5f6112ef601883610b2c565b91506112fa826112bb565b602082019050919050565b5f6020820190508181035f83015261131c816112e3565b9050919050565b7f456c656374696f6e20697320616c726561647920636c6f7365640000000000005f82015250565b5f611357601a83610b2c565b915061136282611323565b602082019050919050565b5f6020820190508181035f8301526113848161134b565b905091905056fea2646970667358221220f0b1edb1f1dc6c4acb69c06dfc501f0c255f5b7ba20f10bf8b68605e008c589964736f6c63430008150033",
  "immutableReferences": {},
  "source": "// SPDX-License-Identifier: MIT\npragma solidity ^0.8.0;\n\ncontract Voting {\n    struct Candidate {\n        string name;\n        uint voteCount;\n    }\n\n    struct Election {\n        string title;\n        Candidate[] candidates;\n        mapping(address => bool) voters;\n        bool isActive;\n    }\n\n    Election public election;\n\n    // Crer une nouvelle lection\n    function createElection(\n        string memory _title,\n        string[] memory _candidateNames\n    ) public {\n        election.title = _title;\n        delete election.candidates; // Rinitialiser les candidats pour une nouvelle lection\n        for (uint i = 0; i < _candidateNames.length; i++) {\n            election.candidates.push(\n                Candidate({name: _candidateNames[i], voteCount: 0})\n            );\n        }\n        election.isActive = true;\n    }\n\n    // Voter pour un candidat\n    function vote(uint candidateIndex) public {\n        require(election.isActive, \"Election is not active\");\n        require(!election.voters[msg.sender], \"You have already voted\");\n        require(\n            candidateIndex < election.candidates.length,\n            \"Invalid candidate\"\n        );\n\n        election.candidates[candidateIndex].voteCount += 1;\n        election.voters[msg.sender] = true;\n    }\n\n    // Clturer l'lection\n    function closeElection() public {\n        require(election.isActive, \"Election is already closed\");\n        election.isActive = false;\n    }\n\n    // Rcuprer les rsultats\n    function getResults() public view returns (Candidate[] memory) {\n        require(!election.isActive, \"Election is still active\");\n        return election.candidates;\n    }\n\n    // Rcuprer les dtails d'un candidat par index\n    function getCandidate(\n        uint index\n    ) public view returns (string memory name, uint voteCount) {\n        require(index < election.candidates.length, \"Candidate does not exist\");\n        Candidate storage candidate = election.candidates[index];\n        return (candidate.name, candidate.voteCount);\n    }\n\n    // Obtenir le nombre total de candidats\n    function getCandidateCount() public view returns (uint) {\n        return election.candidates.length;\n    }\n}\n",
  "sourcePath": "/Users/anatolemartin/Desktop/ECE/ING5/BlockChain/VoteDecentralise/contracts/Voting.sol",
  "compiler": {
    "name": "solc",
    "version": "0.8.21+commit.d9974bed.Emscripten.clang"
  },
  "schemaVersion": "3.4.16",
  "updatedAt": "2024-11-25T18:03:31.225Z",
  "devdoc": {
    "kind": "dev",
    "methods": {},
    "version": 1
  },
  "userdoc": {
    "kind": "user",
    "methods": {},
    "version": 1
  }
}